:020000040000FA
:0400000029EF01F0F3
:020004000000FA
:08000800F2A411008C2AF2940D
:020010001100DD
:0E0012007F9C7F8EA0EC00F038EC01F0120015
:1000200041EC01F0C450186EC350196E1950206E87
:100030001850216E340E226E8A0E1B6E410E1A6EFF
:1000400066EC00F017501C6E1650226E1550216E93
:100050001450206E4FEC00F017501D6E1650226E9B
:100060001550216E1450206E4FEC00F017501E6E8C
:100070001650226E1550216E1450206E4FEC00F079
:1000800017501F6E1C50CBEC00F01D50CBEC00F055
:100090001E50CBEC00F01F50CBEC00F012000A0E0B
:1000A00087EC00F00A0E2202F4CF07F0F3CF08F03D
:1000B0000BC014F00CC015F00D500820166E000E89
:1000C0000720176E16501550145012001B5087EC65
:1000D00000F00BC00EF00CC00FF00DC010F01A5065
:1000E00087EC00F00BC011F00CC012F00DC013F043
:1000F0000EC014F00F501120156E10501220166E05
:10010000000E1320176E16501550145012002002C6
:10011000F4CF07F0F3CF08F02102F4CF09F0F3CFCA
:100120000AF008C00BF007500A200C6E000E0920E0
:100130000D6E0D500C500B501200062EFED7120003
:100140008A6AC00E936E280E13EC01F0300EE9ECB3
:1001500000F00A0E1AEC01F0280EE2EC00F00A0E94
:100160001AEC01F0280EE2EC00F00A0E1AEC01F095
:100170000F0EE2EC00F00A0E1AEC01F0010EE2ECB8
:1001800000F0020E13EC01F0060EE2EC00F00A0E95
:100190001AEC01F01200206E2038D1EC00F0205053
:1001A000216E0F0B036E0A0E0360070F260F032448
:1001B000F0EC00F01200046EDE50F0EC00F0042EC3
:1001C000FBD71200036E03380F0B8A6E8A9801EC7E
:1001D00001F003500F0B8A6E8A9801EC01F01200B7
:1001E000036E03380F0B8A6E8A8801EC01F003500E
:1001F0000F0B8A6E8A8801EC01F00A0E1AEC01F0EE
:1002000012000000000000000000000000000000DC
:1002100000008A8A000000000000000000000000CA
:1002200000008A9A1200026EFA0E1AEC01F0022EF9
:10023000FBD71200006E003A0F0E0014016EF00E94
:10024000001624EC01F01200000E0006015AFDE237
:0202500012009A
:0E02520009EC00F0956A8C6A840ED56EF28A73
:10026000F28E10EC00F010EC00F0FDD736EF01F04C
:1002700092802581010EC26E300EC16EF60EC06EE8
:0A0280001200C282C2B2FED71200C3
:00000001FF
