:020000040000FA
:0400000009EF00F014
:020004000000FA
:08000800F2A411008C2AF2940D
:020010001100DD
:0E0012007F9C7F8E26EC02F03FEC01F0CEECDE
:1000200001F0A8EC00F015EF00F0956A8C6A870EDD
:10003000D56EF28AF28E000E966E000E976E000E4E
:10004000836E14EE00F024EE00F077EC00F083A055
:100050003CEC00F077EC00F083B047EC00F0400E91
:100060008362F3D7400E2FEC02F0400E2FEC02F02B
:10007000400E2FEC02F0E9D7AFEC00F052EC00F0AC
:1000800083A0FCD76EEC00F009C084FF1200AFEC37
:1000900000F052EC00F083B0FCD76EEC00F00AC028
:1000A00084FF1200D9EC01F002508DEC00F0C3CFB8
:1000B00005F099EC00F0DFEC01F003508DEC00F05E
:1000C000C3CF06F09EEC00F0DFEC01F004508DECA5
:1000D00000F0C3CF07F0A3EC00F0120008C0E6FF69
:1000E00009C0E6FF0AC0E6FF83CFE6FF1200D9ECA5
:1000F00001F0C3CF02F0DFEC01F0C3CF03F0E5EC79
:1001000001F0C3CF04F0000E086E096E0A6E1200F3
:10011000016EC350015CC36E1200C36201D006D0F1
:10012000C36488EC00F0C360C35E02D0000EC36EEF
:1001300012000550086405C008F01200065009645A
:1001400006C009F0120007500A6407C00AF0120046
:100150007F9C7F8E3FEC01F0CEEC01F01200000E90
:10016000286E8350296E2950306E2850316E340E1F
:10017000326E8A0E2B6E410E2A6E05EC01F027506E
:100180002C6E2650326E2550316E2450306EEEECBF
:1001900000F027502D6E2650326E2550316E2450BF
:1001A000306EEEEC00F027502E6E2650326E255049
:1001B000316E2450306EEEEC00F027502F6E6AEC5A
:1001C00001F02C5071EC01F02D5071EC01F02E502B
:1001D00071EC01F02F5071EC01F012000A0E26ECC8
:1001E00001F00A0E3202F4CF17F0F3CF18F01BC063
:1001F00024F01CC025F01D501820266E000E17207C
:10020000276E26502550245012002B5026EC01F06A
:100210001BC01EF01CC01FF01DC020F02A5026EC91
:1002200001F01BC021F01CC022F01DC023F01EC035
:1002300024F01F502120256E20502220266E000E13
:100240002320276E26502550245012003002F4CF70
:1002500017F0F3CF18F03102F4CF19F0F3CF1AF002
:1002600018C01BF017501A201C6E000E19201D6EAE
:0E0270001D501C501B501200162EFED71200FF
:02027E008A6A8A
:10028000C00E936E280EB8EC01F0300E8EEC01F02B
:100290000A0EBFEC01F0280E87EC01F00A0EBFEC4D
:1002A00001F0280E87EC01F00A0EBFEC01F00F0EF2
:1002B00087EC01F00A0EBFEC01F0010E87EC01F0B3
:1002C000020EB8EC01F0060E87EC01F00A0EBFEC4E
:1002D00001F01200010E87EC01F0020EB8EC01F003
:1002E0001200316E313876EC01F031500F0B136E85
:1002F0000A0E1360070F260F132495EC01F012006D
:10030000146EDE5095EC01F0142EFBD71200136E24
:1003100013380F0B8A6E8A98A6EC01F013500F0B5E
:100320008A6E8A98A6EC01F01200136E13380F0B38
:100330008A6E8A88A6EC01F013500F0B8A6E8A88A9
:10034000A6EC01F00A0EBFEC01F012000000000064
:100350000000000000000000000000008A8A000089
:100360000000000000000000000000008A9A120057
:10037000126EFA0EBFEC01F0122EFBD71200106EB7
:10038000103A0F0E1014116EF00E1016C9EC01F099
:0C0390001200000E1006115AFDE21200CF
:04039C0092802581A5
:1003A0009282258392842585200EC16EF60EC06E42
:1003B0001200010EC26EC282EBEC01F01200050EBB
:1003C000C26EC282EBEC01F01200090EC26EC28254
:1003D000EBEC01F01200C2B2FED7F0EC01F012001B
:1003E000040E0B6E00EE0CF0070EC4641FEC02F05E
:1003F000080EC46022EC02F0030EC4641FEC02F08D
:10040000040EC46022EC02F0010EC4641FEC02F082
:10041000020EC46022EC02F0000EC4641FEC02F075
:10042000010EC46022EC02F0ED52EDCFF5FFD89042
:10043000000EF562D880C3320B2EF7D71200000EE3
:0C044000EE6E1200C45E010EEE6E1200A3
:04044C00AB8EAC982F
:10045000AC94AC8A6596670EAF6E948C1200306EC9
:10046000DE5036EC02F0302EFBD712009EA8FED7ED
:04047000AD6E12005B
:020000040030CA
:0100000015EA
:0100010013EB
:010002007F7E
:010003007F7D
:01000400F902
:010005008B6F
:010006009168
:01000800FFF8
:01000900C036
:01000A00FFF6
:01000B00E014
:01000C00FFF4
:01000D0040B2
:00000001FF
