:020000040000FA
:0400000026EF01F0F6
:020004000000FA
:08000800F2A411008C2AF2940D
:020010001100DD
:0E0012007F9C7F8E9EEC00F063EC01F01200EC
:10002000000E196E83501A6E1A50206E1950216EF0
:10003000340E226E8A0E1C6E410E1B6E64EC00F0B4
:1000400018501D6E1750226E1650216E1550206EDE
:100050004DEC00F018501E6E1750226E1650216E97
:100060001550206E4DEC00F018501F6E1750226E88
:100070001650216E1550206E4DEC00F01850206E79
:100080001D50C9EC00F01E50C9EC00F01F50C9EC27
:1000900000F02050C9EC00F012000A0E85EC00F0D0
:1000A0000A0E2202F4CF08F0F3CF09F00CC015F0CD
:1000B0000DC016F00E500920176E000E0820186EA5
:1000C00017501650155012001C5085EC00F00CC053
:1000D0000FF00DC010F00EC011F01B5085EC00F0B9
:1000E0000CC012F00DC013F00EC014F00FC015F0CC
:1000F00010501220166E11501320176E000E14208F
:10010000186E17501650155012002002F4CF08F048
:10011000F3CF09F02102F4CF0AF0F3CF0BF009C0BE
:100120000CF008500B200D6E000E0A200E6E0E50C3
:0C0130000D500C501200072EFED71200DC
:04013C008A6AC00EFD
:10014000936E280E10EC01F0300EE6EC00F00A0E73
:1001500017EC01F0280EDFEC00F00A0E17EC01F0AE
:10016000280EDFEC00F00A0E17EC01F00F0EDFECAA
:1001700000F00A0E17EC01F0010EDFEC00F0020EA9
:1001800010EC01F0060EDFEC00F00A0E17EC01F0A7
:100190001200226E2238CEEC00F022500F0B046EBB
:1001A0000A0E0460070F260F0424EDEC00F0120085
:1001B000056EDE50EDEC00F0052EFBD71200046E4C
:1001C00004380F0B8A6E8A98FEEC00F004500F0B77
:1001D0008A6E8A98FEEC00F01200046E04380F0B51
:1001E0008A6E8A88FEEC00F004500F0B8A6E8A88B3
:1001F000FEEC00F00A0E17EC01F012000000000007
:100200000000000000000000000000008A8A0000DA
:100210000000000000000000000000008A9A1200A8
:10022000036EFA0E17EC01F0032EFBD71200016EDD
:10023000013A0F0E0114026EF00E011621EC01F0CE
:0C0240001200000E0106025AFDE212003E
:04024C007F9C7F8E86
:100250004FEC01F09EEC00F063EC01F009EC00F0D3
:1002600032EF01F0956A8C6A870ED56EF28AF28EB3
:10027000000E966E83A041EC01F083B048EC01F0D3
:10028000F9D710EC00F0040E846E83A0FCD71200A6
:0E02900010EC00F0050E846E83B0FCD7120057
:02029E00AB8E25
:1002A000AC98AC94AC8A6596670EAF6E948C1200D5
:1002B000216EDE505FEC01F0212EFBD712009EA8CC
:0602C000FED7AD6E120036
:0A02C60092802581010EC26E300EF9
:1002D000C16EF60EC06E1200C282C2B2FED712000C
:0E02E00048656C6C6F20576F726C64210A00C9
:020000040030CA
:0100000015EA
:0100010013EB
:010002007F7E
:010003007F7D
:01000400F902
:010005008B6F
:010006009168
:01000800FFF8
:01000900C036
:01000A00FFF6
:01000B00E014
:01000C00FFF4
:01000D0040B2
:00000001FF
