:020000040000FA
:0400000009EF00F014
:020004000000FA
:08000800F2A411008C2AF2940D
:020010001100DD
:0E0012007F9C7F8E1FEC02F0AAEC00F0C7EC82
:1000200001F039EC01F015EF00F0956A8C6A870E4B
:10003000D56EF28AF28E000E966E000E976E000E4E
:10004000836E13EE00F023EE00F0FF0E046F77ECEA
:1000500000F083A03CEC00F0050E23EE00F028EC4D
:1000600002F077EC00F083B047EC00F0050E23EED1
:1000700000F028EC02F0EBD740EC01F052EC00F07D
:1000800083A0FCD76EEC00F009C084FF120040ECA6
:1000900001F052EC00F083B0FCD76EEC00F00AC027
:1000A00084FF1200D2EC01F002508FEC00F0C3CFBD
:1000B00005F09BEC00F0D8EC01F003508FEC00F061
:1000C000C3CF06F0A0EC00F0D8EC01F004508FECA8
:1000D00000F0C3CF07F0A5EC00F0120008C0E6FF67
:1000E00009C0E6FF0AC0E6FF83CFE6FF1200D2ECAC
:1000F00001F0C3CF02F0D8EC01F0C3CF03F0DEEC87
:1001000001F0C3CF04F0000E086E096E0A6E13EE04
:1001100000F01200016EC350015CC36E1200C36296
:1001200001D006D0C3648AEC00F0C360C35E02D085
:10013000000EC36E12000550086405C008F01200DE
:100140000650096406C009F0120007500A6407C08F
:040150000AF012009F
:0C0154008A6AC00E936E280E23EC01F0A6
:10016000300EF9EC00F00A0E2AEC01F0280EF2EC49
:1001700000F00A0E2AEC01F0280EF2EC00F00A0E54
:100180002AEC01F00F0EF2EC00F00A0E2AEC01F05E
:10019000010EF2EC00F0020E23EC01F0060EF2EC80
:1001A00000F00A0E2AEC01F01200010EF2EC00F051
:1001B000020E23EC01F01200316E3138E1EC00F058
:1001C00031500F0B136E0A0E1360070F260F132406
:1001D00000EC01F01200146EDE5000EC01F0142E61
:1001E000FBD71200136E13380F0B8A6E8A9811EC2E
:1001F00001F013500F0B8A6E8A9811EC01F0120077
:10020000136E13380F0B8A6E8A8811EC01F01350AD
:100210000F0B8A6E8A8811EC01F00A0E2AEC01F0AD
:1002200012000000000000000000000000000000BC
:1002300000008A8A000000000000000000000000AA
:1002400000008A9A1200126EFA0E2AEC01F0122EA9
:10025000FBD71200106E103A0F0E1014116EF00E34
:10026000101634EC01F01200000E1006115AFDE2D7
:0202700012007A
:0E0272007F9C7F8EAAEC00F0C7EC01F012001A
:10028000000E286E8350296E2950306E2850316E32
:10029000340E326E8A0E2B6E410E2A6E93EC01F0F4
:1002A00027502C6E2650326E2550316E2450306E01
:1002B0007FEC01F027502D6E2650326E2550316EA6
:1002C0002450306E7FEC01F027502E6E2650326E97
:1002D0002550316E2450306E7FEC01F027502F6E88
:1002E000D5EC00F02C50DCEC00F02D50DCEC00F0F4
:1002F0002E50DCEC00F02F50DCEC00F012000A0E67
:10030000B1EC01F00A0E3202F4CF17F0F3CF18F07F
:100310001BC024F01CC025F01D501820266E000EB6
:100320001720276E12002B50B1EC01F01BC01EF0FD
:100330001CC01FF01DC020F02A50B1EC01F01BC002
:1003400021F01CC022F01DC023F01EC024F01F505D
:100350002120256E20502220266E000E2320276E9D
:1003600012003002F4CF17F0F3CF18F03102F4CFBF
:1003700019F0F3CF1AF018C01BF017501A201C6E9A
:0E038000000E19201D6E1200162EFED7120060
:02038E0092805B
:1003900025819282258392842585200EC16EF60EDA
:1003A000C06E1200010EC26EC282E4EC01F01200B7
:1003B000050EC26EC282E4EC01F01200090EC26E9C
:1003C000C282E4EC01F01200C2B2FED7E9EC01F007
:1003D0001200040E0B6E00EE0CF0070EC46418EC55
:1003E00002F0080EC4601BEC02F0030EC46418ECAB
:1003F00002F0040EC4601BEC02F0010EC46418ECA1
:1004000002F0020EC4601BEC02F0000EC46418EC93
:1004100002F0010EC4601BEC02F0ED52EDCFF5FFCF
:10042000D890000EF562D880C3320B2EF7D7120099
:0E043000000EEE6E1200C45E010EEE6E1200A3
:02043E00AB8E83
:10044000AC98AC94AC8A6596670EAF6E948C120033
:10045000306EDE502FEC02F0302EFBD712009EA83B
:06046000FED7AD6E120094
:020000040030CA
:0100000015EA
:0100010013EB
:010002007F7E
:010003007F7D
:01000400F902
:010005008B6F
:010006009168
:01000800FFF8
:01000900C036
:01000A00FFF6
:01000B00E014
:01000C00FFF4
:01000D0040B2
:00000001FF
