:020000040000FA
:0400000026EF01F0F6
:020004000000FA
:08000800F2A411008C2AF2940D
:020010001100DD
:0E0012007F9C7F8E9EEC00F09DEC01F01200B2
:10002000000E246E8350256E2550206E2450216EC4
:10003000340E226E8A0E276E410E266E64EC00F09E
:100040002350286E2250226E2150216E2050206EA7
:100050004DEC00F02350296E2250226E2150216E6B
:100060002050206E4DEC00F023502A6E2250226E5C
:100070002150216E2050206E4DEC00F023502B6E4D
:100080002850C9EC00F02950C9EC00F02A50C9EC06
:1000900000F02B50C9EC00F012000A0E85EC00F0C5
:1000A0000A0E2202F4CF13F0F3CF14F017C020F0A1
:1000B00018C021F019501420226E000E1320236E58
:1000C0002250215020501200275085EC00F017C01C
:1000D0001AF018C01BF019C01CF0265085EC00F077
:1000E00017C01DF018C01EF019C01FF01AC020F074
:1000F0001B501D20216E1C501E20226E000E1F2042
:10010000236E22502150205012002002F4CF13F011
:10011000F3CF14F02102F4CF15F0F3CF16F014C092
:1001200017F013501620186E000E1520196E195076
:0C013000185017501200122EFED71200BB
:04013C008A6AC00EFD
:10014000936E280E10EC01F0300EE6EC00F00A0E73
:1001500017EC01F0280EDFEC00F00A0E17EC01F0AE
:10016000280EDFEC00F00A0E17EC01F00F0EDFECAA
:1001700000F00A0E17EC01F0010EDFEC00F0020EA9
:1001800010EC01F0060EDFEC00F00A0E17EC01F0A7
:1001900012002D6E2D38CEEC00F02D500F0B0F6E8F
:1001A0000A0E0F60070F260F0F24EDEC00F012006F
:1001B000106EDE50EDEC00F0102EFBD712000F6E2B
:1001C0000F380F0B8A6E8A98FEEC00F00F500F0B61
:1001D0008A6E8A98FEEC00F012000F6E0F380F0B3B
:1001E0008A6E8A88FEEC00F00F500F0B8A6E8A88A8
:1001F000FEEC00F00A0E17EC01F012000000000007
:100200000000000000000000000000008A8A0000DA
:100210000000000000000000000000008A9A1200A8
:100220000E6EFA0E17EC01F00E2EFBD712000C6EBC
:100230000C3A0F0E0C140D6EF00E0C1621EC01F0A2
:0C0240001200000E0C060D5AFDE2120028
:04024C007F9C7F8E86
:10025000F5EC01F09EEC00F09DEC01F009EC00F0F3
:1002600032EF01F0956A8C6A870ED56EF28AF28EB3
:10027000000E966E000E976E000E856E11EE00F069
:1002800092EC01F083A052EC01F092EC01F083B00B
:1002900072EC01F01F0E8364F3D721EE00F0FEEC48
:1002A00001F0EED710EC00F0A8EC01F00150C362B1
:1002B00001D007D00150C36499EC01F0C360C35E64
:1002C00002D0000EC36EC3CF05F00550066405C012
:1002D00006F083A0E9D706C0E6FF83CFE6FF06C09D
:1002E00084FF120010EC00F0A8EC01F00150C36292
:1002F00001D007D00150C36499EC01F0C360C35E24
:1003000002D0000EC36EC3CF05F00550066405C0D1
:1003100006F083B0E9D706C0E6FF83CFE6FF06C04C
:1003200084FF1200A8EC01F0C3CF01F0000E066EAE
:0A0330001200C350015CC36E1200FE
:06033A00928025819282F1
:10034000258392842585200EC16EF60EC06E1200A4
:10035000010EC26EC282BAEC01F01200050EC26E2E
:10036000C282BAEC01F01200090EC26EC282BAEC6F
:1003700001F01200C2B2FED7BFEC01F01200040E71
:10038000076E00EE08F0070EC464EEEC01F0080EF4
:10039000C460F1EC01F0030EC464EEEC01F0040E55
:1003A000C460F1EC01F0010EC464EEEC01F0020E49
:1003B000C460F1EC01F0000EC464EEEC01F0010E3B
:1003C000C460F1EC01F0ED52EDCFF5FFD890000ED6
:1003D000F562D880C332072EF7D71200000EEE6EFA
:0A03E0001200C45E010EEE6E120062
:0603EA00AB8EAC98AC9450
:1003F000AC8A6596670EAF6E948C12002C6EDE5040
:1004000005EC02F02C2EFBD712009EA8FED7AD6E95
:020410001200D8
:0E04120048656C6C6F20576F726C64210A0095
:020000040030CA
:0100000015EA
:0100010013EB
:010002007F7E
:010003007F7D
:01000400F902
:010005008B6F
:010006009168
:01000800FFF8
:01000900C036
:01000A00FFF6
:01000B00E014
:01000C00FFF4
:01000D0040B2
:00000001FF
