:020000040000FA
:0400000026EF01F0F6
:020004000000FA
:08000800F2A411008C2AF2940D
:020010001100DD
:0E0012007F9C7F8E9EEC00F07AEC01F01200D5
:10002000000E236E8350246E2450206E2350216EC8
:10003000340E226E8A0E266E410E256E64EC00F0A0
:100040002250276E2150226E2050216E1F50206EAC
:100050004DEC00F02250286E2150226E2050216E6F
:100060001F50206E4DEC00F02250296E2150226E60
:100070002050216E1F50206E4DEC00F022502A6E51
:100080002750C9EC00F02850C9EC00F02950C9EC09
:1000900000F02A50C9EC00F012000A0E85EC00F0C6
:1000A0000A0E2202F4CF12F0F3CF13F016C01FF0A5
:1000B00017C020F018501320216E000E1220226E5F
:1000C000215020501F501200265085EC00F016C021
:1000D00019F017C01AF018C01BF0255085EC00F07D
:1000E00016C01CF017C01DF018C01EF019C01FF07C
:1000F0001A501C20206E1B501D20216E000E1E2049
:10010000226E215020501F5012002002F4CF12F016
:10011000F3CF13F02102F4CF14F0F3CF15F013C096
:1001200016F012501520176E000E1420186E18507D
:0C013000175016501200112EFED71200BE
:04013C008A6AC00EFD
:10014000936E280E10EC01F0300EE6EC00F00A0E73
:1001500017EC01F0280EDFEC00F00A0E17EC01F0AE
:10016000280EDFEC00F00A0E17EC01F00F0EDFECAA
:1001700000F00A0E17EC01F0010EDFEC00F0020EA9
:1001800010EC01F0060EDFEC00F00A0E17EC01F0A7
:1001900012002C6E2C38CEEC00F02C500F0B0E6E93
:1001A0000A0E0E60070F260F0E24EDEC00F0120071
:1001B0000F6EDE50EDEC00F00F2EFBD712000E6E2E
:1001C0000E380F0B8A6E8A98FEEC00F00E500F0B63
:1001D0008A6E8A98FEEC00F012000E6E0E380F0B3D
:1001E0008A6E8A88FEEC00F00E500F0B8A6E8A88A9
:1001F000FEEC00F00A0E17EC01F012000000000007
:100200000000000000000000000000008A8A0000DA
:100210000000000000000000000000008A9A1200A8
:100220000D6EFA0E17EC01F00D2EFBD712000B6EBF
:100230000B3A0F0E0B140C6EF00E0B1621EC01F0A6
:0C0240001200000E0B060C5AFDE212002A
:04024C007F9C7F8E86
:100250009AEC01F09EEC00F07AEC01F009EC00F071
:1002600032EF01F0956A8C6A870ED56EF28AF28EB3
:10027000000E966E000E976E85EC01F0C4CF01F073
:10028000C3CF02F0000E0A6E8BEC01F0C4CF03F076
:10029000C3CF04F091EC01F0C4CF05F0C3CF06F05A
:1002A00083A057EC01F083B071EC01F0E5D710ECBE
:1002B00000F085EC01F001C000F0C45E02C000F067
:1002C000C35EC3CF08F008C000F00A6408C00AF09B
:1002D0000AC085FF040E846E020E845E83A0E9D7F7
:1002E000120010EC00F0050E846E080E845E83B0E0
:0402F000FAD7120027
:0C02F400928025819282258392842585CA
:10030000300EC16EF60EC06E1200010EC26EC282B9
:1003100097EC01F01200050EC26EC28297EC01F05C
:100320001200090EC26EC28297EC01F01200C2B236
:04033000FED71200E2
:0C033400AB8EAC98AC94AC8A6596670E5A
:10034000AF6E948C12002B6EDE50AAEC01F02B2EB7
:0C035000FBD712009EA8FED7AD6E120075
:04035C0048656C6C18
:0A0360006F20576F726C64210A00D1
:020000040030CA
:0100000015EA
:0100010013EB
:010002007F7E
:010003007F7D
:01000400F902
:010005008B6F
:010006009168
:01000800FFF8
:01000900C036
:01000A00FFF6
:01000B00E014
:01000C00FFF4
:01000D0040B2
:00000001FF
