:020000040000FA
:040000007EEF01F09E
:020004000000FA
:08000800F2A411008C2AF2940D
:020010001100DD
:0E0012007F9C7F8E9EEC00F026EC01F0120029
:10002000000E246E8350256E2550206E2450216EC4
:10003000340E226E8A0E276E410E266E64EC00F09E
:100040002350286E2250226E2150216E2050206EA7
:100050004DEC00F02350296E2250226E2150216E6B
:100060002050206E4DEC00F023502A6E2250226E5C
:100070002150216E2050206E4DEC00F023502B6E4D
:100080002850C9EC00F02950C9EC00F02A50C9EC06
:1000900000F02B50C9EC00F012000A0E85EC00F0C5
:1000A0000A0E2202F4CF13F0F3CF14F017C020F0A1
:1000B00018C021F019501420226E000E1320236E58
:1000C0002250215020501200275085EC00F017C01C
:1000D0001AF018C01BF019C01CF0265085EC00F077
:1000E00017C01DF018C01EF019C01FF01AC020F074
:1000F0001B501D20216E1C501E20226E000E1F2042
:10010000236E22502150205012002002F4CF13F011
:10011000F3CF14F02102F4CF15F0F3CF16F014C092
:1001200017F013501620186E000E1520196E195076
:0C013000185017501200122EFED71200BB
:04013C008A6AC00EFD
:10014000936E280E10EC01F0300EE6EC00F00A0E73
:1001500017EC01F0280EDFEC00F00A0E17EC01F0AE
:10016000280EDFEC00F00A0E17EC01F00F0EDFECAA
:1001700000F00A0E17EC01F0010EDFEC00F0020EA9
:1001800010EC01F0060EDFEC00F00A0E17EC01F0A7
:1001900012002D6E2D38CEEC00F02D500F0B0F6E8F
:1001A0000A0E0F60070F260F0F24EDEC00F012006F
:1001B000106EDE50EDEC00F0102EFBD712000F6E2B
:1001C0000F380F0B8A6E8A98FEEC00F00F500F0B61
:1001D0008A6E8A98FEEC00F012000F6E0F380F0B3B
:1001E0008A6E8A88FEEC00F00F500F0B8A6E8A88A8
:1001F000FEEC00F00A0E17EC01F012000000000007
:100200000000000000000000000000008A8A0000DA
:100210000000000000000000000000008A9A1200A8
:100220000E6EFA0E17EC01F00E2EFBD712000C6EBC
:100230000C3A0F0E0C140D6EF00E0C1621EC01F0A2
:0C0240001200000E0C060D5AFDE2120028
:04024C0092802581F6
:100250009282258392842585200EC16EF60EC06E93
:100260001200010EC26EC28243EC01F01200050EB4
:10027000C26EC28243EC01F01200090EC26EC2824D
:1002800043EC01F01200C2B2FED748EC01F01200BC
:10029000040E076E00EE08F0070EC46477EC01F060
:1002A000080EC4607AEC01F0030EC46477EC01F030
:1002B000040EC4607AEC01F0010EC46477EC01F026
:1002C000020EC4607AEC01F0000EC46477EC01F019
:1002D000010EC4607AEC01F0ED52EDCFF5FFD8903D
:1002E000000EF562D880C332072EF7D71200000E39
:0C02F000EE6E1200C45E010EEE6E1200F5
:0402FC007F9C7F8ED6
:10030000CFEC01F09EEC00F026EC01F009EC00F0DF
:100310008AEF01F0956A8C6A870ED56EF28AF28EAA
:10032000000E966E000E976EC8EC01F083A09FEC55
:1003300001F0C8EC01F083B0BDEC01F0F5D710EC92
:1003400000F031EC01F0C3CF85FF01C000F0C35EC7
:10035000D8B6B9EC01F0C3CF05F005C006F00664CD
:1003600005C006F0040E846E020E845E83A0E9D7F9
:100370001200FF0EC35EC32A120010EC00F0050E3F
:10038000846E080E845E84CF85FF83B0F8D7120098
:0E03900031EC01F0C3CF01F0000E066E12003A
:02039E00AB8E24
:1003A000AC98AC94AC8A6596670EAF6E948C1200D4
:1003B0002C6EDE50DFEC01F02C2EFBD712009EA835
:0603C000FED7AD6E120035
:0A03C60048656C6C6F20576F726C75
:0403D00064210A009A
:020000040030CA
:0100000015EA
:0100010013EB
:010002007F7E
:010003007F7D
:01000400F902
:010005008B6F
:010006009168
:01000800FFF8
:01000900C036
:01000A00FFF6
:01000B00E014
:01000C00FFF4
:01000D0040B2
:00000001FF
