:020000040000FA
:0400000026EF01F0F6
:020004000000FA
:08000800F2A411008C2AF2940D
:020010001100DD
:0E0012007F9C7F8E9EEC00F07AEC01F01200D5
:10002000000E286E8350296E2950206E2850216EB4
:10003000340E226E8A0E2B6E410E2A6E64EC00F096
:1000400027502C6E2650226E2550216E2450206E93
:100050004DEC00F027502D6E2650226E2550216E5B
:100060002450206E4DEC00F027502E6E2650226E4C
:100070002550216E2450206E4DEC00F027502F6E3D
:100080002C50C9EC00F02D50C9EC00F02E50C9ECFA
:1000900000F02F50C9EC00F012000A0E85EC00F0C1
:1000A0000A0E2202F4CF17F0F3CF18F01BC024F091
:1000B0001CC025F01D501820266E000E1720276E3C
:1000C00026502550245012002B5085EC00F01BC008
:1000D0001EF01CC01FF01DC020F02A5085EC00F05F
:1000E0001BC021F01CC022F01DC023F01EC024F054
:1000F0001F502120256E20502220266E000E232026
:10010000276E26502550245012002002F4CF17F0FD
:10011000F3CF18F02102F4CF19F0F3CF1AF018C082
:100120001BF017501A201C6E000E19201D6E1D505A
:0C0130001C501B501200162EFED71200AF
:04013C008A6AC00EFD
:10014000936E280E10EC01F0300EE6EC00F00A0E73
:1001500017EC01F0280EDFEC00F00A0E17EC01F0AE
:10016000280EDFEC00F00A0E17EC01F00F0EDFECAA
:1001700000F00A0E17EC01F0010EDFEC00F0020EA9
:1001800010EC01F0060EDFEC00F00A0E17EC01F0A7
:100190001200316E3138CEEC00F031500F0B136E7F
:1001A0000A0E1360070F260F1324EDEC00F0120067
:1001B000146EDE50EDEC00F0142EFBD71200136E1F
:1001C00013380F0B8A6E8A98FEEC00F013500F0B59
:1001D0008A6E8A98FEEC00F01200136E13380F0B33
:1001E0008A6E8A88FEEC00F013500F0B8A6E8A88A4
:1001F000FEEC00F00A0E17EC01F012000000000007
:100200000000000000000000000000008A8A0000DA
:100210000000000000000000000000008A9A1200A8
:10022000126EFA0E17EC01F0122EFBD71200106EB0
:10023000103A0F0E1014116EF00E101621EC01F092
:0C0240001200000E1006115AFDE2120020
:04024C007F9C7F8E86
:10025000CEEC01F09EEC00F07AEC01F009EC00F03D
:1002600032EF01F0956A8C6A870ED56EF28AF28EB3
:10027000000E966E000E976E87EC01F0C4CF01F071
:10028000C3CF02F0000E0A6E8DEC01F0C4CF03F074
:10029000C3CF04F093EC01F0C4CF05F0C3CF06F058
:1002A00083A057EC01F083B071EC01F0E5D710ECBE
:1002B00000F087EC01F001C000F0C45E02C000F065
:1002C000C35EC3CF08F008C000F00A6408C00AF09B
:1002D0000AC085FF040E846E020E845E83A0E9D7F7
:1002E000120010EC00F0050E846E080E845E83B0E0
:0402F000FAD7120027
:0C02F400030E0B6E928025819282258300
:1003000092842585200EC16EF60EC06E1200010E7D
:10031000C26EC28299EC01F01200050EC26EC2825A
:1003200099EC01F01200090EC26EC28299EC01F044
:100330001200C2B2FED79EEC01F0120000EE0CF0EB
:10034000070EC464C7EC01F0080EC464CAEC01F0E7
:10035000030EC464C7EC01F0040EC464CAEC01F0DF
:10036000010EC464C7EC01F0020EC464CAEC01F0D3
:10037000000EC464C7EC01F0010EC464CAEC01F0C5
:10038000EDCFF5FFF52EC3320B2EFAD71200000E7B
:0C039000EE6E1200C45E010EEE6E120054
:04039C00AB8EAC98E0
:1003A000AC94AC8A6596670EAF6E948C1200306E7A
:1003B000DE50DEEC01F0302EFBD712009EA8FED7F7
:0403C000AD6E12000C
:0C03C40048656C6C6F20576F726C6421F0
:0203D0000A0021
:020000040030CA
:0100000015EA
:0100010013EB
:010002007F7E
:010003007F7D
:01000400F902
:010005008B6F
:010006009168
:01000800FFF8
:01000900C036
:01000A00FFF6
:01000B00E014
:01000C00FFF4
:01000D0040B2
:00000001FF
