:020000040000FA
:0400000009EF00F014
:020004000000FA
:08000800F2A411008C2AF2940D
:020010001100DD
:0E0012007F9C7F8E21EC02F03AEC01F0C9ECED
:1000200001F0A3EC00F015EF00F0956A8C6A870EE2
:10003000D56EF28AF28E000E966E000E976E000E4E
:10004000856E11EE00F072EC00F083A037EC00F04A
:1000500072EC00F083B042EC00F0030E8364F3D73F
:10006000080E856E24EE6AF02AEC02F0ECD7AAECBA
:1000700000F04DEC00F083A0FCD769EC00F009C063
:1000800084FF1200AAEC00F04DEC00F083B0FCD726
:1000900069EC00F00AC084FF1200D4EC01F00250B9
:1000A00088EC00F0C3CF05F094EC00F0DAEC01F03E
:1000B000045088EC00F0C3CF06F099EC00F0DAECC5
:1000C00001F0035088EC00F0C3CF07F09EEC00F085
:1000D000120008C0E6FF09C0E6FF0AC0E6FF83CFB2
:1000E000E6FF1200D4EC01F0C3CF02F0DAEC01F02D
:1000F000C3CF04F0E0EC01F0C3CF03F0000E086EB4
:10010000096E0A6E1200016EC350015CC36E1200CC
:10011000C36201D006D0C36483EC00F0C360C35E49
:1001200002D0000EC36E12000550086405C008F02E
:1001300012000650096406C009F0120007500A6454
:0601400007C00AF01200E6
:0A0146007F9C7F8E3AEC01F0C9ECBB
:1001500001F01200000E286E8350296E2950306E77
:100160002850316E340E326E8A0E2B6E410E2A6E7E
:1001700000EC01F027502C6E2650326E2550316E67
:100180002450306EE9EC00F027502D6E2650326E70
:100190002550316E2450306EE9EC00F027502E6E61
:1001A0002650326E2550316E2450306EE9EC00F04E
:1001B00027502F6E65EC01F02C506CEC01F02D50A7
:1001C0006CEC01F02E506CEC01F02F506CEC01F057
:1001D00012000A0E21EC01F00A0E3202F4CF17F0E1
:1001E000F3CF18F01BC024F01CC025F01D501820C0
:1001F000266E000E1720276E265025502450120020
:100200002B5021EC01F01BC01EF01CC01FF01DC0C4
:1002100020F02A5021EC01F01BC021F01CC022F07C
:100220001DC023F01EC024F01F502120256E205039
:100230002220266E000E2320276E265025502450A3
:1002400012003002F4CF17F0F3CF18F03102F4CFE0
:1002500019F0F3CF1AF018C01BF017501A201C6EBB
:10026000000E19201D6E1D501C501B501200162E22
:04027000FED71200A3
:0C0274008A6AC00E936E280EB3EC01F0F5
:10028000300E89EC01F00A0EBAEC01F0280E82EC77
:1002900001F00A0EBAEC01F0280E82EC01F00A0E11
:1002A000BAEC01F00F0E82EC01F00A0EBAEC01F08C
:1002B000010E82EC01F0020EB3EC01F0060E82ECAE
:1002C00001F00A0EBAEC01F01200010E82EC01F00E
:1002D000020EB3EC01F01200316E313871EC01F016
:1002E00031500F0B136E0A0E1360070F260F1324E5
:1002F00090EC01F01200146EDE5090EC01F0142E20
:10030000FBD71200136E13380F0B8A6E8A98A1EC7C
:1003100001F013500F0B8A6E8A98A1EC01F01200C5
:10032000136E13380F0B8A6E8A88A1EC01F01350FC
:100330000F0B8A6E8A88A1EC01F00A0EBAEC01F06C
:10034000120000000000000000000000000000009B
:1003500000008A8A00000000000000000000000089
:1003600000008A9A1200126EFA0EBAEC01F0122EF8
:10037000FBD71200106E103A0F0E1014116EF00E13
:100380001016C4EC01F01200000E1006115AFDE226
:02039000120059
:0E039200928025819282258392842585200EFB
:1003A000C16EF60EC06E1200010EC26EC282E6EC85
:1003B00001F01200050EC26EC282E6EC01F01200DE
:1003C000090EC26EC282E6EC01F01200C2B2FED784
:1003D000EBEC01F01200040E0B6E00EE0CF0070EB9
:1003E000C4641AEC02F0080EC4601DEC02F0030EA7
:1003F000C4641AEC02F0040EC4601DEC02F0010E9D
:10040000C4641AEC02F0020EC4601DEC02F0000E8F
:10041000C4641AEC02F0010EC4601DEC02F0ED524F
:10042000EDCFF5FFD890000EF562D880C3320B2EC9
:10043000F7D71200000EEE6E1200C45E010EEE6ED3
:020440001200A8
:0E044200AB8EAC98AC94AC8A6596670EAF6E2C
:10045000948C1200306EDE5031EC02F0302EFBD75F
:0A04600012009EA8FED7AD6E120038
:06046A0048656C6C6F2078
:08047000576F726C64210A0051
:020000040030CA
:0100000015EA
:0100010013EB
:010002007F7E
:010003007F7D
:01000400F902
:010005008B6F
:010006009168
:01000800FFF8
:01000900C036
:01000A00FFF6
:01000B00E014
:01000C00FFF4
:01000D0040B2
:00000001FF
