:020000040000FA
:040000007AEF01F0A2
:020004000000FA
:08000800F2A411008C2AF2940D
:020010001100DD
:0E0012007F9C7F8E9EEC00F026EC01F0120029
:10002000000E246E8350256E2550206E2450216EC4
:10003000340E226E8A0E276E410E266E64EC00F09E
:100040002350286E2250226E2150216E2050206EA7
:100050004DEC00F02350296E2250226E2150216E6B
:100060002050206E4DEC00F023502A6E2250226E5C
:100070002150216E2050206E4DEC00F023502B6E4D
:100080002850C9EC00F02950C9EC00F02A50C9EC06
:1000900000F02B50C9EC00F012000A0E85EC00F0C5
:1000A0000A0E2202F4CF13F0F3CF14F017C020F0A1
:1000B00018C021F019501420226E000E1320236E58
:1000C0002250215020501200275085EC00F017C01C
:1000D0001AF018C01BF019C01CF0265085EC00F077
:1000E00017C01DF018C01EF019C01FF01AC020F074
:1000F0001B501D20216E1C501E20226E000E1F2042
:10010000236E22502150205012002002F4CF13F011
:10011000F3CF14F02102F4CF15F0F3CF16F014C092
:1001200017F013501620186E000E1520196E195076
:0C013000185017501200122EFED71200BB
:04013C008A6AC00EFD
:10014000936E280E10EC01F0300EE6EC00F00A0E73
:1001500017EC01F0280EDFEC00F00A0E17EC01F0AE
:10016000280EDFEC00F00A0E17EC01F00F0EDFECAA
:1001700000F00A0E17EC01F0010EDFEC00F0020EA9
:1001800010EC01F0060EDFEC00F00A0E17EC01F0A7
:1001900012002D6E2D38CEEC00F02D500F0B0F6E8F
:1001A0000A0E0F60070F260F0F24EDEC00F012006F
:1001B000106EDE50EDEC00F0102EFBD712000F6E2B
:1001C0000F380F0B8A6E8A98FEEC00F00F500F0B61
:1001D0008A6E8A98FEEC00F012000F6E0F380F0B3B
:1001E0008A6E8A88FEEC00F00F500F0B8A6E8A88A8
:1001F000FEEC00F00A0E17EC01F012000000000007
:100200000000000000000000000000008A8A0000DA
:100210000000000000000000000000008A9A1200A8
:100220000E6EFA0E17EC01F00E2EFBD712000C6EBC
:100230000C3A0F0E0C140D6EF00E0C1621EC01F0A2
:0C0240001200000E0C060D5AFDE2120028
:04024C00030E076E28
:10025000928025819282258392842585200EC16E0D
:10026000F60EC06E1200010EC26EC28245EC01F0A5
:100270001200050EC26EC28245EC01F01200090E9A
:10028000C26EC28245EC01F01200C2B2FED74AEC47
:1002900001F0120000EE08F0070EC46473EC01F0E8
:1002A000080EC46476EC01F0030EC46473EC01F034
:1002B000040EC46476EC01F0010EC46473EC01F02A
:1002C000020EC46476EC01F0000EC46473EC01F01D
:1002D000010EC46476EC01F0EDCFF5FFF52EC332CC
:1002E000072EFAD71200000EEE6E1200C45E010E49
:0402F000EE6E12009C
:0C02F4007F9C7F8EC9EC01F09EEC00F0B6
:1003000026EC01F009EC00F086EF01F0956A8C6AAA
:10031000870ED56EF28AF28E000E966E000E976EE4
:10032000C2EC01F083A09BEC01F0C2EC01F083B0C1
:10033000B9EC01F0F5D710EC00F033EC01F001C09E
:1003400000F0C35ED8B6B5EC01F0C3CF05F005C030
:1003500006F0066405C006F0040E846E020E845E8C
:1003600083A0EBD706C085FF1200FF0EC35EC32A31
:10037000120010EC00F0050E846E080E845E83B04F
:10038000FAD7120033EC01F0C3CF01F0000E066E75
:02039000120059
:0E039200AB8EAC98AC94AC8A6596670EAF6EDD
:1003A000948C12002C6EDE50D9EC01F02C2EFBD771
:0A03B00012009EA8FED7AD6E1200E9
:0603BA0048656C6C6F2029
:0803C000576F726C64210A0002
:020000040030CA
:0100000015EA
:0100010013EB
:010002007F7E
:010003007F7D
:01000400F902
:010005008B6F
:010006009168
:01000800FFF8
:01000900C036
:01000A00FFF6
:01000B00E014
:01000C00FFF4
:01000D0040B2
:00000001FF
