:020000040000FA
:040000002FEF01F0ED
:020004000000FA
:08000800F2A411008C2AF2940D
:020010001100DD
:0E0012007F9C7F8EA0EC00F0A2EC01F01200AB
:10002000000E246E8350256E2550206E2450216EC4
:10003000340E226E8A0E276E410E266E66EC00F09C
:100040002350286E2250226E2150216E2050206EA7
:100050004FEC00F02350296E2250226E2150216E69
:100060002050206E4FEC00F023502A6E2250226E5A
:100070002150216E2050206E4FEC00F023502B6E4B
:10008000CBEC00F02850D2EC00F02950D2EC00F07C
:100090002A50D2EC00F02B50D2EC00F012000A0EE5
:1000A00087EC00F00A0E2202F4CF13F0F3CF14F025
:1000B00017C020F018C021F019501420226E000E35
:1000C0001320236E2250215020501200275087EC1D
:1000D00000F017C01AF018C01BF019C01CF0265011
:1000E00087EC00F017C01DF018C01EF019C01FF0FB
:1000F0001AC020F01B501D20216E1C501E20226EA5
:10010000000E1F20236E225021502050120020028A
:10011000F4CF13F0F3CF14F02102F4CF15F0F3CFA6
:1001200016F014C017F013501620186E000E15208C
:10013000196E1950185017501200122EFED71200C7
:100140008A6AC00E936E280E19EC01F0300EEFECA7
:1001500000F00A0E20EC01F0280EE8EC00F00A0E88
:1001600020EC01F0280EE8EC00F00A0E20EC01F083
:100170000F0EE8EC00F00A0E20EC01F0010EE8ECA6
:1001800000F0020E19EC01F0060EE8EC00F00A0E89
:1001900020EC01F01200010EE8EC00F0020E19EC68
:1001A00001F012002D6E2D38D7EC00F02D500F0B02
:1001B0000F6E0A0E0F60070F260F0F24F6EC00F0EB
:1001C0001200106EDE50F6EC00F0102EFBD712007D
:1001D0000F6E0F380F0B8A6E8A9807EC01F00F50E4
:1001E0000F0B8A6E8A9807EC01F012000F6E0F3821
:1001F0000F0B8A6E8A8807EC01F00F500F0B8A6E86
:100200008A8807EC01F00A0E20EC01F012000000D1
:1002100000000000000000000000000000008A8ACA
:1002200000000000000000000000000000008A9AAA
:1002300012000E6EFA0E20EC01F00E2EFBD712000B
:100240000C6E0C3A0F0E0C140D6EF00E0C162AEC00
:0E02500001F01200000E0C060D5AFDE2120025
:02025E007F9C83
:100260007F8EFAEC01F0A0EC00F0A2EC01F009ECBA
:1002700000F03BEF01F0956A8C6A870ED56EF28A2A
:10028000F28E000E966E000E976E000E856E11EEC9
:1002900000F097EC01F083A057EC01F097EC01F02F
:1002A00083B077EC01F0030E8364F3D7F2D710EC40
:1002B00000F0ADEC01F00150C36201D007D0015055
:1002C000C3649EEC01F0C360C35E02D0000EC36E37
:1002D000C3CF05F00550066405C006F083A0E9D73A
:1002E00006C0E6FF83CFE6FF06C084FF120010ECD5
:1002F00000F0ADEC01F00150C36201D007D0015015
:10030000C3649EEC01F0C360C35E02D0000EC36EF6
:10031000C3CF05F00550066405C006F083B0E9D7E9
:1003200006C0E6FF83CFE6FF06C084FF1200ADECF7
:1003300001F0C3CF01F0000E066E1200C350015C45
:04034000C36E120076
:0C03440092802581928225839284258579
:10035000200EC16EF60EC06E1200010EC26EC28279
:10036000BFEC01F01200050EC26EC282BFEC01F0BC
:100370001200090EC26EC282BFEC01F01200C2B2BE
:10038000FED7C4EC01F01200040E076E00EE08F078
:10039000070EC464F3EC01F0080EC460F6EC01F043
:1003A000030EC464F3EC01F0040EC460F6EC01F03B
:1003B000010EC464F3EC01F0020EC460F6EC01F02F
:1003C000000EC464F3EC01F0010EC460F6EC01F021
:1003D000ED52EDCFF5FFD890000EF562D880C33214
:1003E000072EF7D71200000EEE6E1200C45E010E4B
:0403F000EE6E12009B
:0C03F400AB8EAC98AC94AC8A6596670E9A
:10040000AF6E948C12002C6EDE500AEC02F02C2E93
:0C041000FBD712009EA8FED7AD6E1200B4
:04041C0048656C6C57
:0A0420006F20576F726C64210A0010
:020000040030CA
:0100000015EA
:0100010013EB
:010002007F7E
:010003007F7D
:01000400F902
:010005008B6F
:010006009168
:01000800FFF8
:01000900C036
:01000A00FFF6
:01000B00E014
:01000C00FFF4
:01000D0040B2
:00000001FF
