:020000040000FA
:04000000A0EF00F07D
:020004000000FA
:08000800F2A411008C2AF2940D
:020010001100DD
:0E0012007F9C7F8E32EC01F0C1EC01F01200F9
:10002000000E286E8350296E2950206E2850216EB4
:10003000340E226E8A0E2B6E410E2A6E66EC00F094
:1000400027502C6E2650226E2550216E2450206E93
:100050004FEC00F027502D6E2650226E2550216E59
:100060002450206E4FEC00F027502E6E2650226E4A
:100070002550216E2450206E4FEC00F027502F6E3B
:100080005DEC01F02C5064EC01F02D5064EC01F0BB
:100090002E5064EC01F02F5064EC01F012000A0EB7
:1000A00087EC00F00A0E2202F4CF17F0F3CF18F01D
:1000B0001BC024F01CC025F01D501820266E000E19
:1000C0001720276E26502550245012002B5087EC05
:1000D00000F01BC01EF01CC01FF01DC020F02A50F5
:1000E00087EC00F01BC021F01CC022F01DC023F0E3
:1000F0001EC024F01F502120256E20502220266E85
:10010000000E2320276E2650255024501200200276
:10011000F4CF17F0F3CF18F02102F4CF19F0F3CF9A
:100120001AF018C01BF017501A201C6E000E192070
:100130001D6E1D501C501B501200162EFED71200B3
:100140007F9C7F8E19EC02F032EC01F0C1EC01F0E3
:1001500009EC00F0ACEF00F0956A8C6A870ED56E62
:10016000F28AF28E000E966E000E976E000E856E6D
:1001700011EE00F001EC01F083A0C6EC00F001EC00
:1001800001F083B0D1EC00F0F5D7F4D710EC00F01B
:10019000DCEC00F083A0FCD7F8EC00F009C084FF91
:1001A000120010EC00F0DCEC00F083B0FCD7F8ECAF
:1001B00000F00AC084FF1200CCEC01F0025017ECF2
:1001C00001F0C3CF05F023EC01F0D2EC01F00450B4
:1001D00017EC01F0C3CF06F028EC01F0D2EC01F0EF
:1001E000035017EC01F0C3CF07F02DEC01F0120023
:1001F00008C0E6FF09C0E6FF0AC0E6FF83CFE6FFBE
:100200001200CCEC01F0C3CF02F0D2EC01F0C3CF6E
:1002100004F0D8EC01F0C3CF03F0000E086E096EB5
:100220000A6E1200016EC350015CC36E1200C362FD
:1002300001D006D0C36412EC01F0C360C35E02D0EB
:10024000000EC36E12000550086405C008F01200CD
:100250000650096406C009F0120007500A6407C07E
:040260000AF012008E
:0C0264008A6AC00E936E280EABEC01F00D
:10027000300E81EC01F00A0EB2EC01F0280E7AEC9F
:1002800001F00A0EB2EC01F0280E7AEC01F00A0E31
:10029000B2EC01F00F0E7AEC01F00A0EB2EC01F0B4
:1002A000010E7AEC01F0020EABEC01F0060E7AECD6
:1002B00001F00A0EB2EC01F01200010E7AEC01F02E
:1002C000020EABEC01F01200316E313869EC01F036
:1002D00031500F0B136E0A0E1360070F260F1324F5
:1002E00088EC01F01200146EDE5088EC01F0142E40
:1002F000FBD71200136E13380F0B8A6E8A9899EC95
:1003000001F013500F0B8A6E8A9899EC01F01200DD
:10031000136E13380F0B8A6E8A8899EC01F0135014
:100320000F0B8A6E8A8899EC01F00A0EB2EC01F08C
:1003300012000000000000000000000000000000AB
:1003400000008A8A00000000000000000000000099
:1003500000008A9A1200126EFA0EB2EC01F0122E10
:10036000FBD71200106E103A0F0E1014116EF00E23
:100370001016BCEC01F01200000E1006115AFDE23E
:02038000120069
:0E038200928025819282258392842585200E0B
:10039000C16EF60EC06E1200010EC26EC282DEEC9D
:1003A00001F01200050EC26EC282DEEC01F01200F6
:1003B000090EC26EC282DEEC01F01200C2B2FED79C
:1003C000E3EC01F01200040E0B6E00EE0CF0070ED1
:1003D000C46412EC02F0080EC46015EC02F0030EC7
:1003E000C46412EC02F0040EC46015EC02F0010EBD
:1003F000C46412EC02F0020EC46015EC02F0000EB0
:10040000C46412EC02F0010EC46015EC02F0ED526F
:10041000EDCFF5FFD890000EF562D880C3320B2ED9
:10042000F7D71200000EEE6E1200C45E010EEE6EE3
:020430001200B8
:0E043200AB8EAC98AC94AC8A6596670EAF6E3C
:10044000948C1200306EDE5029EC02F0302EFBD777
:0A04500012009EA8FED7AD6E120048
:06045A0048656C6C6F2088
:08046000576F726C64210A0061
:020000040030CA
:0100000015EA
:0100010013EB
:010002007F7E
:010003007F7D
:01000400F902
:010005008B6F
:010006009168
:01000800FFF8
:01000900C036
:01000A00FFF6
:01000B00E014
:01000C00FFF4
:01000D0040B2
:00000001FF
