:020000040000FA
:0400000009EF00F014
:020004000000FA
:08000800F2A411008C2AF2940D
:020010001100DD
:0E0012007F9C7F8E1DEC02F0A8EC00F0C5EC88
:1000200001F037EC01F015EF00F0956A8C6A870E4D
:10003000D56EF28AF28E000E966E000E976E000E4E
:10004000836E14EE00F024EE00F077EC00F083A055
:100050003CEC00F077EC00F083B047EC00F0400E91
:100060008362F3D7400E26EC02F0400E26EC02F03D
:10007000400E26EC02F0E9D73EEC01F052EC00F025
:1000800083A0FCD76EEC00F009C084FF12003EECA8
:1000900001F052EC00F083B0FCD76EEC00F00AC027
:1000A00084FF1200D0EC01F002508DEC00F0C3CFC1
:1000B00005F099EC00F0D6EC01F003508DEC00F067
:1000C000C3CF06F09EEC00F0D6EC01F004508DECAE
:1000D00000F0C3CF07F0A3EC00F0120008C0E6FF69
:1000E00009C0E6FF0AC0E6FF83CFE6FF1200D0ECAE
:1000F00001F0C3CF02F0D6EC01F0C3CF03F0DCEC8B
:1001000001F0C3CF04F0000E086E096E0A6E1200F3
:10011000016EC350015CC36E1200C36201D006D0F1
:10012000C36488EC00F0C360C35E02D0000EC36EEF
:1001300012000550086405C008F01200065009645A
:1001400006C009F0120007500A6407C00AF0120046
:100150008A6AC00E936E280E21EC01F0300EF7EC87
:1001600000F00A0E28EC01F0280EF0EC00F00A0E68
:1001700028EC01F0280EF0EC00F00A0E28EC01F05B
:100180000F0EF0EC00F00A0E28EC01F0010EF0EC7E
:1001900000F0020E21EC01F0060EF0EC00F00A0E69
:1001A00028EC01F01200010EF0EC00F0020E21EC40
:1001B00001F01200316E3138DFEC00F031500F0BDE
:1001C000136E0A0E1360070F260F1324FEEC00F0C7
:1001D0001200146EDE50FEEC00F0142EFBD712005D
:1001E000136E13380F0B8A6E8A980FEC01F01350C0
:1001F0000F0B8A6E8A980FEC01F01200136E133801
:100200000F0B8A6E8A880FEC01F013500F0B8A6E69
:100210008A880FEC01F00A0E28EC01F012000000B1
:1002200000000000000000000000000000008A8ABA
:1002300000000000000000000000000000008A9A9A
:100240001200126EFA0E28EC01F0122EFBD71200EB
:10025000106E103A0F0E1014116EF00E101632ECD4
:0E02600001F01200000E1006115AFDE212000D
:02026E007F9C73
:100270007F8EA8EC00F0C5EC01F01200000E286E95
:100280008350296E2950306E2850316E340E326EF4
:100290008A0E2B6E410E2A6E91EC01F027502C6EC7
:1002A0002650326E2550316E2450306E7DEC01F0B8
:1002B00027502D6E2650326E2550316E2450306EF0
:1002C0007DEC01F027502E6E2650326E2550316E97
:1002D0002450306E7DEC01F027502F6ED3EC00F0EF
:1002E0002C50DAEC00F02D50DAEC00F02E50DAEC65
:1002F00000F02F50DAEC00F012000A0EAFEC01F023
:100300000A0E3202F4CF17F0F3CF18F01BC024F01E
:100310001CC025F01D501820266E000E1720276ED9
:1003200012002B50AFEC01F01BC01EF01CC01FF0E0
:100330001DC020F02A50AFEC01F01BC021F01CC002
:1003400022F01DC023F01EC024F01F502120256E76
:1003500020502220266E000E2320276E120030022D
:10036000F4CF17F0F3CF18F03102F4CF19F0F3CF38
:100370001AF018C01BF017501A201C6E000E19201E
:0A0380001D6E1200162EFED71200AB
:06038A00928025819282A1
:10039000258392842585200EC16EF60EC06E120054
:1003A000010EC26EC282E2EC01F01200050EC26EB6
:1003B000C282E2EC01F01200090EC26EC282E2ECCF
:1003C00001F01200C2B2FED7E7EC01F01200040EF9
:1003D0000B6E00EE0CF0070EC46416EC02F0080E73
:1003E000C46019EC02F0030EC46416EC02F0040EB3
:1003F000C46019EC02F0010EC46416EC02F0020EA7
:10040000C46019EC02F0000EC46416EC02F0010E98
:10041000C46019EC02F0ED52EDCFF5FFD890000E5C
:10042000F562D880C3320B2EF7D71200000EEE6EA5
:0A0430001200C45E010EEE6E120011
:06043A00AB8EAC98AC94FF
:10044000AC8A6596670EAF6E948C1200306EDE50EB
:100450002DEC02F0302EFBD712009EA8FED7AD6E19
:02046000120088
:020000040030CA
:0100000015EA
:0100010013EB
:010002007F7E
:010003007F7D
:01000400F902
:010005008B6F
:010006009168
:01000800FFF8
:01000900C036
:01000A00FFF6
:01000B00E014
:01000C00FFF4
:01000D0040B2
:00000001FF
